:100000000C945D000C9485000C9485000C94850084
:100010000C9485000C9485000C9485000C9485004C
:100020000C9485000C9485000C9485000C9485003C
:100030000C9485000C9485000C9485000C9485002C
:100040000C94DA020C9485000C9485000C948500C5
:100050000C9485000C9485000C9485000C9485000C
:100060000C9485000C94850000000008000201003B
:100070000003040700000000000000000000000072
:10008000250028002B0000000000240027002A0083
:10009000040404040404040402020202020203032E
:1000A0000303030301020408102040800102040836
:1000B0001020010204081020FA0311241FBECFEF04
:1000C000D8E0DEBFCDBF11E0A0E0B1E0E4E8F8E0A9
:1000D00002C005900D92A431B107D9F721E0A4E147
:1000E000B1E001C01D92A733B207E1F710E0CDE502
:1000F000D0E004C02197FE010E943A04CC35D1071C
:10010000C9F70E9424030C9440040C94000090E072
:10011000FC01EC55FF4F249180579F4FFC018491C7
:10012000882399F090E0880F991FFC01EA57FF4F50
:10013000A591B491FC01E458FF4F859194918FB73C
:10014000F894EC91E22BEC938FBF0895AF92BF929D
:10015000CF92DF92EF92FF920F931F93CF93DF9393
:100160006C017B018B01040F151FEB015E01AE18C2
:10017000BF08C017D10759F06991D601ED91FC91E4
:100180000190F081E02DC6010995892B79F7C50111
:10019000DF91CF911F910F91FF90EF90DF90CF9063
:1001A000BF90AF90089590E0FC01E859FF4F249173
:1001B000FC01EC55FF4F3491FC01E057FF4FE491F7
:1001C000EE23C9F0222339F0233001F1A8F42130C5
:1001D00019F1223029F1F0E0EE0FFF1FE458FF4F34
:1001E000A591B4918FB7F894EC91611126C0309528
:1001F0003E233C938FBF08952730A9F02830C9F0E3
:10020000243049F7809180008F7D03C08091800069
:100210008F7780938000DFCF84B58F7784BDDBCF6D
:1002200084B58F7DFBCF8091B0008F778093B00035
:10023000D2CF8091B0008F7DF9CF3E2BDACF3FB780
:10024000F8948091190190911A01A0911B01B0912D
:100250001C0126B5A89B05C02F3F19F00196A11DD2
:10026000B11D3FBFBA2FA92F982F8827BC01CD0100
:10027000620F711D811D911D42E0660F771F881F5F
:10028000991F4A95D1F70895089590E080E0089568
:100290008F929F92AF92BF920F931F93CF93DF9352
:1002A000CDB7DEB7A1970FB6F894DEBF0FBECDBFB6
:1002B00019A2423008F44AE08E010F5D1F4F842ED0
:1002C000912CB12CA12CA50194010E941804E62FB9
:1002D000B901CA01EA3044F5E05DD801EE938D0121
:1002E000232B242B252B79F790E080E0109769F0E1
:1002F000FD0101900020E9F73197AF014A1B5B0B2C
:10030000BD018FE191E00E94A600A1960FB6F8947E
:10031000DEBF0FBECDBFDF91CF911F910F91BF9078
:10032000AF909F908F900895E95CD7CFCF93DF93E4
:10033000EC0160E08E810E94D30061E08E810E941A
:10034000D30060E08E810E94D3008BE891E001979A
:10035000F1F7DF91CF910895CF92DF92EF92FF9264
:100360000F931F93CF93DF936C017C0187E0E80E1E
:10037000F11CD0E0C0E0062F10E0B8010C2E02C046
:10038000759567950A94E2F76170F70181917F0195
:100390000E94D3002196C430D10579F7C601DF91C0
:1003A000CF911F910F91FF90EF90DF90CF900C9421
:1003B0009601CF92DF92EF92FF920F931F93CF930C
:1003C000DF93EC01F62E642F8C810E94D3008D8187
:1003D0008F3F19F060E00E94D3000F2D10E08F8551
:1003E00084FF25C06E0187E0C80ED11CF12CE12CE2
:1003F000B8010E2C02C0759567950A94E2F76170FA
:10040000F60181916F010E94D300FFEFEF1AFF0AFE
:1004100088E0E816F10461F7CE01DF91CF911F91DA
:100420000F91FF90EF90DF90CF900C949601B80160
:1004300084E0759567958A95E1F7CE010E94AC013D
:100440006F2DCE01DF91CF911F910F91FF90EF9013
:10045000DF90CF900C94AC0140E0682F8FE191E0E9
:100460000C94D901CF93DF93823029F490912E011F
:10047000986090932E01809332011092330180E4B2
:100480008093340180E18093350180E580933601CB
:10049000809123010E948700809124018F3F11F0F9
:1004A0000E948700809125010E948700CFE1D1E062
:1004B0009E012F51314080912E0184FD0AC084E0BD
:1004C00090E02196281739073CF48E810E9487001E
:1004D000EFCF88E090E0F5CF8BE39DE00197F1F757
:1004E00060E0809123010E94D30060E080912501AB
:1004F0000E94D300809124018F3F19F060E00E9498
:10050000D30080912E0184FD39C063E08FE191E03A
:100510000E94AC01CBE4D6E4CE010197F1F763E091
:100520008FE191E00E94AC012197F1F763E08FE148
:1005300091E00E94AC0183E592E00197F1F762E05F
:100540008FE191E00E94AC0180912E0180620E94B7
:100550002C0284E080932F018CE00E942C0281E029
:100560000E942C028BE39FE10197F1F782E08093D8
:10057000300186E0DF91CF910C942C0280620E94C2
:100580002C028BE496E40197F1F780912E018062B2
:100590000E942C0283E592E00197F1F780912E01F1
:1005A00080620E942C02D0CF41E00E94D90181E0FC
:1005B00090E008951F920F920FB60F9211242F937F
:1005C0003F938F939F93AF93BF9380911501909129
:1005D0001601A0911701B09118013091140123E088
:1005E000230F2D3758F50196A11DB11D209314013D
:1005F0008093150190931601A0931701B0931801F1
:100600008091190190911A01A0911B01B0911C01D8
:100610000196A11DB11D8093190190931A01A09319
:100620001B01B0931C01BF91AF919F918F913F919E
:100630002F910F900FBE0F901F90189526E8230F53
:100640000296A11DB11DD2CF789484B5826084BD7D
:1006500084B5816084BD85B5826085BD85B58160C6
:1006600085BD80916E00816080936E001092810044
:1006700080918100826080938100809181008160FF
:1006800080938100809180008160809380008091C0
:10069000B10084608093B1008091B000816080934C
:1006A000B00080917A00846080937A0080917A0013
:1006B000826080937A0080917A00816080937A00D2
:1006C00080917A00806880937A001092C1008DE05A
:1006D0000E94870082E00E9432020BE31FE1C0E02B
:1006E000D0E010921E0110921D01C12CD12C760178
:1006F00080911D0190911E010A970CF075C0C601F2
:1007000081709927892B09F068C088E00E948700D2
:1007100061E088E00E94D300E1E080913201811124
:10072000E0E0E195F0E0E15EFE4F848980680E94A0
:100730002C0246E050E06CE071E08FE191E00E9415
:10074000A600E0913201E23008F04CC0E150F0E048
:10075000E15EFE4F848980680E942C024AE0C70156
:10076000B6010E9448010E941F012B013C0188EE46
:10077000882E83E0982EA12CB12C0E941F016419B1
:10078000750986099709683E734081059105A8F3AC
:1007900021E0821A9108A108B10888EE480E83E092
:1007A000581E611C711C81149104A104B10429F725
:1007B00081E00E942C02C8010197F1F780911D0190
:1007C00090911E01019690931E0180931D018FEF61
:1007D000C81AD80AE80AF80A8BCF88E00E94870076
:1007E00060E097CFE1E0B3CF209709F47ACF0E9481
:1007F000000077CFEFE1F1E01382128284E091E014
:100800009183808382E084838FEF858383E0868376
:1008100084E0878385E0808786E0818787E0828720
:100820001386148615861686178681E00C9432028C
:10083000A1E21A2EAA1BBB1BFD010DC0AA1FBB1FE4
:10084000EE1FFF1FA217B307E407F50720F0A21B56
:10085000B30BE40BF50B661F771F881F991F1A94C3
:1008600069F760957095809590959B01AC01BD01ED
:10087000CF010895EE0FFF1F0590F491E02D09942C
:04088000F894FFCF1A
:1008840000000000D402A600450144014A617961D8
:040894006E7400007E
:00000001FF
